{"address":"0x06b3244b086cecC40F1e5A826f736Ded68068a0F","bytecode":"0x608060405234801561001057600080fd5b50613e21806100206000396000f3fe60806040526004361061021d5760003560e01c80637d7c2a1c11610123578063ad83885f116100ab578063efbb5cb01161006f578063efbb5cb014610640578063f399e22e14610655578063f48c738814610675578063f4f9f7fd14610695578063fbfa77cf146106bd57610224565b8063ad83885f146105be578063adc58dd9146105de578063c292614b146105f3578063d8a8bf5c14610609578063ed65cb001461062b57610224565b80638e479b0c116100f25780638e479b0c1461051a5780638f1f02b31461052f5780638fc745291461054f578063970d44ee1461056f5780639de77d1e1461059957610224565b80637d7c2a1c146104885780637dc71a721461049d578063895a7485146104c55780638ce74426146104e557610224565b806339e5274c116101a6578063677159351161017557806367715935146103e25780636bff31c3146104085780636f94a7211461041e578063775dc046146104485780637d1b623a1461046857610224565b806339e5274c146103625780634641257d1461037557806347ddbcfe1461039857806364440b37146103ba57610224565b80630d8e6e2c116101ed5780630d8e6e2c146102c6578063189e9f88146102f45780631fa8970c14610314578063249d39e91461032a578063338346d21461034057610224565b806240e09b146102265780630504a2881461026b57806306fdde031461028f578063099d1eb0146102b157610224565b3661022457005b005b34801561023257600080fd5b5061024e73c02aaa39b223fe8d0a0e5c4f27ead9083c756cc281565b6040516001600160a01b0390911681526020015b60405180910390f35b34801561027757600080fd5b5061028160395481565b604051908152602001610262565b34801561029b57600080fd5b506102a46106dd565b6040516102629190613b4b565b3480156102bd57600080fd5b50610281601f81565b3480156102d257600080fd5b506040805180820190915260058152640312e302e360dc1b60208201526102a4565b34801561030057600080fd5b5061024e61030f36600461392c565b61076b565b34801561032057600080fd5b50610281603a5481565b34801561033657600080fd5b5061028161271081565b34801561034c57600080fd5b5061024e600080516020613dcc83398151915281565b61022461037036600461380c565b610795565b34801561038157600080fd5b5061038a6107f3565b604051610262929190613a71565b3480156103a457600080fd5b506103ad610860565b6040516102629190613ad8565b3480156103c657600080fd5b5061024e73030ba81f1c18d280636f32af80b9aad02cf0854e81565b3480156103ee57600080fd5b5060005461024e906201000090046001600160a01b031681565b34801561041457600080fd5b50610281603b5481565b34801561042a57600080fd5b5061043361093d565b60408051928352602083019190915201610262565b34801561045457600080fd5b5061022461046336600461392c565b610a68565b34801561047457600080fd5b5061022461048336600461392c565b610b4a565b34801561049457600080fd5b50610224610c0d565b3480156104a957600080fd5b5061024e73f63b34710400cad3e044cffdcab00a0f32e33ecf81565b3480156104d157600080fd5b5061038a6104e036600461395c565b610eea565b3480156104f157600080fd5b5060345461050790600160a01b900461ffff1681565b60405161ffff9091168152602001610262565b34801561052657600080fd5b5061028161128d565b34801561053b57600080fd5b5061022461054a36600461392c565b61131c565b34801561055b57600080fd5b5061022461056a3660046138cf565b6113d2565b34801561057b57600080fd5b506037546105899060ff1681565b6040519015158152602001610262565b3480156105a557600080fd5b506105ae611483565b6040516102629493929190613a9f565b3480156105ca57600080fd5b5060345461024e906001600160a01b031681565b3480156105ea57600080fd5b5061038a611604565b3480156105ff57600080fd5b5061028160385481565b34801561061557600080fd5b5061061e6116d4565b6040516102629190613a5e565b34801561063757600080fd5b50600019610281565b34801561064c57600080fd5b50610281611736565b34801561066157600080fd5b5061022461067036600461376a565b6117f7565b34801561068157600080fd5b5061022461069036600461392c565b6119ea565b3480156106a157600080fd5b5061024e731982b2f5814301d4e9a8b0201555376e62f8242881565b3480156106c957600080fd5b5060335461024e906001600160a01b031681565b603580546106ea90613d23565b80601f016020809104026020016040519081016040528092919081815260200182805461071690613d23565b80156107635780601f1061073857610100808354040283529160200191610763565b820191906000526020600020905b81548152906001019060200180831161074657829003601f168201915b505050505081565b6036818154811061077b57600080fd5b6000918252602090912001546001600160a01b0316905081565b6033546001600160a01b031633146107ac57600080fd5b6107b68282611aad565b7fb8979beef99ce8cedd10830934327a8b83c5acffc54693c718ef9e2c91080ec882826040516107e7929190613a71565b60405180910390a15050565b603354604051631e8de77b60e01b815260609182916001600160a01b0390911690631e8de77b9061082a9084908190600401613a71565b600060405180830381600087803b15801561084457600080fd5b505af1158015610858573d6000803e3d6000fd5b505050509091565b604080516001808252818301909252606091816020015b6040805180820190915260008152606060208201528152602001906001900390816108775790505090506000816000815181106108c457634e487b7160e01b600052603260045260246000fd5b602002602001015190506000816000018181525050603680548060200260200160405190810160405280929190818152602001828054801561092f57602002820191906000526020600020905b81546001600160a01b03168152600190910190602001808311610911575b505050506020909201525090565b600080600073b53c1a33016b2dc2ff3653530bff1848a515c8c56001600160a01b031663fca513a86040518163ffffffff1660e01b815260040160206040518083038186803b15801561098f57600080fd5b505afa1580156109a3573d6000803e3d6000fd5b505050506040513d601f19601f820116820180604052508101906109c7919061374e565b60405163b3596f0760e01b8152600080516020613dcc83398151915260048201529091506000906001600160a01b0383169063b3596f079060240160206040518083038186803b158015610a1a57600080fd5b505afa158015610a2e573d6000803e3d6000fd5b505050506040513d601f19601f82011682018060405250810190610a529190613944565b9050610a5d81611f5d565b909590945092505050565b600054604051632e22bacf60e01b8152336004820152620100009091046001600160a01b031690632e22bacf9060240160006040518083038186803b158015610ab057600080fd5b505afa158015610ac4573d6000803e3d6000fd5b5050505061271081108015610adb5750603a548110155b8015610ae957506039548111155b610b0e5760405162461bcd60e51b8152600401610b0590613bcc565b60405180910390fd5b60388190556040518181527fa8a7709841b33ad4d0c929fb387a1c191ed2754c7127c4324dcaf7c0b1feb6c9906020015b60405180910390a150565b600054604051632e22bacf60e01b8152336004820152620100009091046001600160a01b031690632e22bacf9060240160006040518083038186803b158015610b9257600080fd5b505afa158015610ba6573d6000803e3d6000fd5b5050505061271081108015610bbc575060385481115b610bd85760405162461bcd60e51b8152600401610b0590613bcc565b60398190556040518181527ff98b2d5c625a7a24d45fbccf6d5cf245c902aed5191f5d9a82664431950d88a690602001610b3f565b6000546040516311aec98d60e01b8152336004820152620100009091046001600160a01b0316906311aec98d90602401600060405180830381600087803b158015610c5757600080fd5b505af1158015610c6b573d6000803e3d6000fd5b50505050600073b53c1a33016b2dc2ff3653530bff1848a515c8c56001600160a01b0316630261bf8b6040518163ffffffff1660e01b815260040160206040518083038186803b158015610cbe57600080fd5b505afa158015610cd2573d6000803e3d6000fd5b505050506040513d601f19601f82011682018060405250810190610cf6919061374e565b9050600073b53c1a33016b2dc2ff3653530bff1848a515c8c56001600160a01b031663fca513a86040518163ffffffff1660e01b815260040160206040518083038186803b158015610d4757600080fd5b505afa158015610d5b573d6000803e3d6000fd5b505050506040513d601f19601f82011682018060405250810190610d7f919061374e565b60405163b3596f0760e01b8152600080516020613dcc83398151915260048201529091506000906001600160a01b0383169063b3596f079060240160206040518083038186803b158015610dd257600080fd5b505afa158015610de6573d6000803e3d6000fd5b505050506040513d601f19601f82011682018060405250810190610e0a9190613944565b9050600080610e1883611f5d565b91509150600a821115610e7357603b546038548360005b83811015610e6a57600a821115610e5357610e4c8284898c612229565b9150610e58565b610e6a565b80610e6281613d5e565b915050610e2f565b50505050610e97565b8015610e9757806000610e87826003613cc1565b9050610e948282876125a7565b50505b6000610ea38284613c89565b1115610ee35760408051838152602081018390527f0b33d39bbef101ecc4f5ef04e6d3a125c9fb745a418dac380e2a9460f8200dc8910160405180910390a15b5050505050565b60335460609081906001600160a01b03163314610f0657600080fd5b60026001541415610f595760405162461bcd60e51b815260206004820152601f60248201527f5265656e7472616e637947756172643a207265656e7472616e742063616c6c006044820152606401610b05565b60026001558415801590610f6d5750848410155b610fb15760405162461bcd60e51b815260206004820152601560248201527463616e6e6f7420726570617920302073686172657360581b6044820152606401610b05565b603680548060200260200160405190810160405280929190818152602001828054801561100757602002820191906000526020600020905b81546001600160a01b03168152600190910190602001808311610fe9575b505050505091506000825167ffffffffffffffff81111561103857634e487b7160e01b600052604160045260246000fd5b604051908082528060200260200182016040528015611061578160200160208202803683370190505b50905060005b83518110156110dd576110a084828151811061109357634e487b7160e01b600052603260045260246000fd5b6020026020010151612a9b565b8282815181106110c057634e487b7160e01b600052603260045260246000fd5b6020908102919091010152806110d581613d5e565b915050611067565b506110e9868686612b48565b825167ffffffffffffffff81111561111157634e487b7160e01b600052604160045260246000fd5b60405190808252806020026020018201604052801561113a578160200160208202803683370190505b50915060005b835181101561122957600061116e85838151811061109357634e487b7160e01b600052603260045260246000fd5b9050868884848151811061119257634e487b7160e01b600052603260045260246000fd5b60200260200101516111a49190613cc1565b6111ae9190613ca1565b8383815181106111ce57634e487b7160e01b600052603260045260246000fd5b6020026020010151826111e19190613ce0565b6111eb9190613c89565b84838151811061120b57634e487b7160e01b600052603260045260246000fd5b6020908102919091010152508061122181613d5e565b915050611140565b50603354611241906001600160a01b03168484612d6c565b7f4f80ed973ad44caebda6b6d59164f6f2229a654b3790513fe6c96957d1c9207e868685856040516112769493929190613c03565b60405180910390a150600180559094909350915050565b6000611317600080516020613dcc833981519152806001600160a01b03166318160ddd6040518163ffffffff1660e01b815260040160206040518083038186803b1580156112da57600080fd5b505afa1580156112ee573d6000803e3d6000fd5b505050506040513d601f19601f820116820180604052508101906113129190613944565b612e96565b905090565b600054604051632e22bacf60e01b8152336004820152620100009091046001600160a01b031690632e22bacf9060240160006040518083038186803b15801561136457600080fd5b505afa158015611378573d6000803e3d6000fd5b50505050600a81111561139d5760405162461bcd60e51b8152600401610b0590613bcc565b603b8190556040518181527f0cdc341e082dbd0a46614b1d9c2f4eef310ba014b58b1335b5b0f1762392669290602001610b3f565b600054604051632e22bacf60e01b8152336004820152620100009091046001600160a01b031690632e22bacf9060240160006040518083038186803b15801561141a57600080fd5b505afa15801561142e573d6000803e3d6000fd5b50506037805484151560ff19821681179092556040805160ff909216801515835260208301939093529193507f748cca965f8cddafc66f534e5ea09ded831ccf043014eda1673ea057aa0192d49250016107e7565b60608060008060368054806020026020016040519081016040528092919081815260200182805480156114df57602002820191906000526020600020905b81546001600160a01b031681526001909101906020018083116114c1575b50939750600193506114f092505050565b604051908082528060200260200182016040528015611519578160200160208202803683370190505b509250600061153b73f63b34710400cad3e044cffdcab00a0f32e33ecf612a9b565b9050600061155c73eeeeeeeeeeeeeeeeeeeeeeeeeeeeeeeeeeeeeeee612a9b565b61157973c02aaa39b223fe8d0a0e5c4f27ead9083c756cc2612a9b565b6115839190613c89565b9050600061159e600080516020613dcc833981519152612a9b565b6115bb731982b2f5814301d4e9a8b0201555376e62f82428612a9b565b6115c59190613c89565b90506001945082826115e5600080516020613dcc83398151915284612e96565b6115ef9190613c89565b6115f99190613ce0565b935050505090919293565b606080603680548060200260200160405190810160405280929190818152602001828054801561165d57602002820191906000526020600020905b81546001600160a01b0316815260019091019060200180831161163f575b509395506001935061166e92505050565b604051908082528060200260200182016040528015611697578160200160208202803683370190505b509050670de0b6b3a7640000816000815181106116c457634e487b7160e01b600052603260045260246000fd5b6020026020010181815250509091565b6060603680548060200260200160405190810160405280929190818152602001828054801561172c57602002820191906000526020600020905b81546001600160a01b0316815260019091019060200180831161170e575b5050505050905090565b6000806000806000611746611483565b9350935093509350811561175c578094506117f0565b60005b84518110156117ee57600084828151811061178a57634e487b7160e01b600052603260045260246000fd5b6020026020010151905060008111156117db576117ce8683815181106117c057634e487b7160e01b600052603260045260246000fd5b602002602001015182612e96565b6117d89088613c89565b96505b50806117e681613d5e565b91505061175f565b505b5050505090565b60006118036001612f51565b9050801561181b576000805461ff0019166101001790555b6040805160018082528183019092526000916020808301908036833701905050905073eeeeeeeeeeeeeeeeeeeeeeeeeeeeeeeeeeeeeeee8160008151811061187357634e487b7160e01b600052603260045260246000fd5b6001600160a01b03909216602092830291909101820152611a2c603855611964603a55611af46039556003603b5560408051630261bf8b60e01b8152905160009273b53c1a33016b2dc2ff3653530bff1848a515c8c592630261bf8b9260048083019392829003018186803b1580156118eb57600080fd5b505afa1580156118ff573d6000803e3d6000fd5b505050506040513d601f19601f82011682018060405250810190611923919061374e565b9050611940600080516020613dcc83398151915282600019612fd6565b61196173c02aaa39b223fe8d0a0e5c4f27ead9083c756cc282600019612fd6565b611990600080516020613dcc83398151915273dc24316b9ae028f1497c275eb9192a3ea0f67022600019612fd6565b61199d856007868561312d565b505080156119e5576000805461ff0019169055604051600181527f7f26b83ff96e1f2b6a682f133852f6798a09c465da95921460cefb38474024989060200160405180910390a15b505050565b600054604051632e22bacf60e01b8152336004820152620100009091046001600160a01b031690632e22bacf9060240160006040518083038186803b158015611a3257600080fd5b505afa158015611a46573d6000803e3d6000fd5b5050505061271081108015611a5c575060385481105b611a785760405162461bcd60e51b8152600401610b0590613bcc565b603a8190556040518181527f5a034ae82b3b759c632314559ed0f79bd3b337c742eebd009e8ef8cf3950a4c290602001610b3f565b600081600081518110611ad057634e487b7160e01b600052603260045260246000fd5b6020908102919091010151604051630f7c084960e21b81526000600482018190526001602483015260448201839052606482015290915073dc24316b9ae028f1497c275eb9192a3ea0f6702290633df021249083906084016020604051808303818588803b158015611b4157600080fd5b505af1158015611b55573d6000803e3d6000fd5b50505050506040513d601f19601f82011682018060405250810190611b7a9190613944565b506000611b94600080516020613dcc833981519152612a9b565b90508015611f5757600080600073b53c1a33016b2dc2ff3653530bff1848a515c8c56001600160a01b0316630261bf8b6040518163ffffffff1660e01b815260040160206040518083038186803b158015611bee57600080fd5b505afa158015611c02573d6000803e3d6000fd5b505050506040513d601f19601f82011682018060405250810190611c26919061374e565b90506000819050600073b53c1a33016b2dc2ff3653530bff1848a515c8c56001600160a01b031663fca513a86040518163ffffffff1660e01b815260040160206040518083038186803b158015611c7c57600080fd5b505afa158015611c90573d6000803e3d6000fd5b505050506040513d601f19601f82011682018060405250810190611cb4919061374e565b60405163b3596f0760e01b8152600080516020613dcc83398151915260048201529091506001600160a01b0382169063b3596f079060240160206040518083038186803b158015611d0457600080fd5b505afa158015611d18573d6000803e3d6000fd5b505050506040513d601f19601f82011682018060405250810190611d3c9190613944565b93506000611d5d731982b2f5814301d4e9a8b0201555376e62f82428612a9b565b60405163e8eda9df60e01b8152600080516020613dcc833981519152600482015260248101899052306044820152600060648201529091506001600160a01b0384169063e8eda9df90608401600060405180830381600087803b158015611dc357600080fd5b505af1158015611dd7573d6000803e3d6000fd5b5050604051634417a58360e01b8152306004820152600092506001600160a01b0387169150634417a5839060240160206040518083038186803b158015611e1d57600080fd5b505afa158015611e31573d6000803e3d6000fd5b505050506040513d601f19601f82011682018060405250810190611e559190613907565b519050611e6381601f6132ff565b611ed657604051635a3b74b960e01b8152600080516020613dcc8339815191526004820152600160248201526001600160a01b03861690635a3b74b990604401600060405180830381600087803b158015611ebd57600080fd5b505af1158015611ed1573d6000803e3d6000fd5b505050505b5080611ef5731982b2f5814301d4e9a8b0201555376e62f82428612a9b565b611eff9190613ce0565b603b5460385491975093509150600090505b82811015611f5057600a861115611f39576000611f3087848888612229565b9650611f3e9050565b611f50565b80611f4881613d5e565b915050611f11565b5050505050505b50505050565b603854603954603a54603b5460009384938693919290919061271090819081908190819081908b5b8181101561200e57612710611f9a8c87613cc1565b611fa49190613ca1565b9450611fb08589613c89565b9750612710611fbf8b86613cc1565b611fc99190613ca1565b9350611fd58488613c89565b9650612710611fe48a85613cc1565b611fee9190613ca1565b9250611ffa8387613c89565b95508061200681613d5e565b915050611f85565b5050505050600061203273f63b34710400cad3e044cffdcab00a0f32e33ecf612a9b565b905060008080808b61204c86670de0b6b3a7640000613cc1565b6120569190613ca1565b905061206461271089613ce0565b61206e8983613cc1565b6120789190613ca1565b935061208661271088613ce0565b6120908883613cc1565b61209a9190613ca1565b92506120a861271087613ce0565b6120b28783613cc1565b6120bc9190613ca1565b91505060006120de731982b2f5814301d4e9a8b0201555376e62f82428612a9b565b905080831115612203578b6120f56127108a613ce0565b6120ff9190613cc1565b604051635e0d443f60e01b81526001600482015260006024820152670de0b6b3a7640000604482015273dc24316b9ae028f1497c275eb9192a3ea0f6702290635e0d443f9060640160206040518083038186803b15801561215f57600080fd5b505afa158015612173573d6000803e3d6000fd5b505050506040513d601f19601f820116820180604052508101906121979190613944565b6121a1908a613cc1565b6121ab9190613ce0565b8c6121b86127108b613ce0565b6121c29084613cc1565b6121cc9190613cc1565b6121d6878b613cc1565b6121e890670de0b6b3a7640000613cc1565b6121f29190613ce0565b6121fc9190613ca1565b9c50612218565b80821015612218576122158482613ce0565b9d505b505050505050505050505050915091565b60008181670de0b6b3a76400006122408689613cc1565b61224a9190613ca1565b9050600061271061225b8884613cc1565b6122659190613ca1565b604051632fe4a15f60e21b81523060048201529091506000906001600160a01b0385169063bf92857c9060240160c06040518083038186803b1580156122aa57600080fd5b505afa1580156122be573d6000803e3d6000fd5b505050506040513d601f19601f820116820180604052508101906122e29190613987565b50505092505050808211156122f5578091505b50801561259c5760405163a415bcad60e01b815273c02aaa39b223fe8d0a0e5c4f27ead9083c756cc260048201526024810182905260026044820152600060648201523060848201526001600160a01b0384169063a415bcad9060a401600060405180830381600087803b15801561236c57600080fd5b505af1158015612380573d6000803e3d6000fd5b5050505073c02aaa39b223fe8d0a0e5c4f27ead9083c756cc26001600160a01b0316632e1a7d4d6123c473c02aaa39b223fe8d0a0e5c4f27ead9083c756cc2612a9b565b6040518263ffffffff1660e01b81526004016123e291815260200190565b600060405180830381600087803b1580156123fc57600080fd5b505af1158015612410573d6000803e3d6000fd5b5050604051630f7c084960e21b81526000600482018190526001602483015247604483018190526064830191909152925073dc24316b9ae028f1497c275eb9192a3ea0f670229150633df021249083906084016020604051808303818588803b15801561247c57600080fd5b505af1158015612490573d6000803e3d6000fd5b50505050506040513d601f19601f820116820180604052508101906124b59190613944565b5060006124cf600080516020613dcc833981519152612a9b565b905060006124f0731982b2f5814301d4e9a8b0201555376e62f82428612a9b565b60405163e8eda9df60e01b8152600080516020613dcc833981519152600482015260248101849052306044820152600060648201529091506001600160a01b0387169063e8eda9df90608401600060405180830381600087803b15801561255657600080fd5b505af115801561256a573d6000803e3d6000fd5b505050508061258c731982b2f5814301d4e9a8b0201555376e62f82428612a9b565b6125969190613ce0565b96505050505b505050949350505050565b600073dc24316b9ae028f1497c275eb9192a3ea0f670229050600073b53c1a33016b2dc2ff3653530bff1848a515c8c56001600160a01b0316630261bf8b6040518163ffffffff1660e01b815260040160206040518083038186803b15801561260f57600080fd5b505afa158015612623573d6000803e3d6000fd5b505050506040513d601f19601f82011682018060405250810190612647919061374e565b90506000603b54600261265a9190613cc1565b905060005b81811015612a92576000600188111561276057604051632fe4a15f60e21b8152306004820152600090819081906001600160a01b0388169063bf92857c9060240160c06040518083038186803b1580156126b857600080fd5b505afa1580156126cc573d6000803e3d6000fd5b505050506040513d601f19601f820116820180604052508101906126f09190613987565b505093505092509250600081111561275c5760008161271161271085613cc1565b61271b9190613ca1565b612726906001613c89565b90508084111561275a578961273b8286613ce0565b61274d90670de0b6b3a7640000613cc1565b6127579190613ca1565b94505b505b5050505b6001811180156127705750600188115b15612a795780888111156127815750875b6402540be400612791828b613ce0565b10156127c65760006127b6731982b2f5814301d4e9a8b0201555376e62f82428612a9b565b9050808211156127c4578091505b505b6127d0818a613ce0565b98506001811115612a7357604051631a4ca37b60e21b8152600080516020613dcc8339815191526004820152602481018290523060448201526001600160a01b038616906369328dec90606401602060405180830381600087803b15801561283757600080fd5b505af115801561284b573d6000803e3d6000fd5b505050506040513d601f19601f8201168201806040525081019061286f9190613944565b506000612889600080516020613dcc833981519152612a9b565b604051630f7c084960e21b8152600160048201526000602482018190526044820183905260648201529091506001600160a01b03881690633df0212490608401602060405180830381600087803b1580156128e357600080fd5b505af11580156128f7573d6000803e3d6000fd5b505050506040513d601f19601f8201168201806040525081019061291b9190613944565b508815612a715788600061294273eeeeeeeeeeeeeeeeeeeeeeeeeeeeeeeeeeeeeeee612a9b565b905081811015612950578091505b508015612a6f5773c02aaa39b223fe8d0a0e5c4f27ead9083c756cc26001600160a01b031663d0e30db0826040518263ffffffff1660e01b81526004016000604051808303818588803b1580156129a657600080fd5b505af11580156129ba573d6000803e3d6000fd5b505060405163573ade8160e01b815273c02aaa39b223fe8d0a0e5c4f27ead9083c756cc2600482015260248101859052600260448201523060648201526001600160a01b038b16935063573ade8192506084019050602060405180830381600087803b158015612a2957600080fd5b505af1158015612a3d573d6000803e3d6000fd5b505050506040513d601f19601f82011682018060405250810190612a619190613944565b50612a6c818b613ce0565b99505b505b505b50612a7f565b50612a92565b5080612a8a81613d5e565b91505061265f565b50505050505050565b60006001600160a01b03821673eeeeeeeeeeeeeeeeeeeeeeeeeeeeeeeeeeeeeeee1415612ac9575047612b43565b6040516370a0823160e01b81523060048201526001600160a01b038316906370a082319060240160206040518083038186803b158015612b0857600080fd5b505afa158015612b1c573d6000803e3d6000fd5b505050506040513d601f19601f82011682018060405250810190612b409190613944565b90505b919050565b600073b53c1a33016b2dc2ff3653530bff1848a515c8c56001600160a01b031663fca513a86040518163ffffffff1660e01b815260040160206040518083038186803b158015612b9757600080fd5b505afa158015612bab573d6000803e3d6000fd5b505050506040513d601f19601f82011682018060405250810190612bcf919061374e565b60405163b3596f0760e01b8152600080516020613dcc83398151915260048201529091506000906001600160a01b0383169063b3596f079060240160206040518083038186803b158015612c2257600080fd5b505afa158015612c36573d6000803e3d6000fd5b505050506040513d601f19601f82011682018060405250810190612c5a9190613944565b905060008486612c7d731982b2f5814301d4e9a8b0201555376e62f82428612a9b565b612c879190613cc1565b612c919190613ca1565b905060008587612cb473f63b34710400cad3e044cffdcab00a0f32e33ecf612a9b565b612cbe9190613cc1565b612cc89190613ca1565b9050612cd58282856125a7565b6000612cf473c02aaa39b223fe8d0a0e5c4f27ead9083c756cc2612a9b565b90508015612d6257604051632e1a7d4d60e01b81526004810182905273c02aaa39b223fe8d0a0e5c4f27ead9083c756cc290632e1a7d4d90602401600060405180830381600087803b158015612d4957600080fd5b505af1158015612d5d573d6000803e3d6000fd5b505050505b5050505050505050565b60005b8251811015611f57576000828281518110612d9a57634e487b7160e01b600052603260045260246000fd5b602002602001015190506000811115612e835773eeeeeeeeeeeeeeeeeeeeeeeeeeeeeeeeeeeeeeee6001600160a01b0316848381518110612deb57634e487b7160e01b600052603260045260246000fd5b60200260200101516001600160a01b03161415612e3e576040516001600160a01b0386169082156108fc029083906000818181858888f19350505050158015612e38573d6000803e3d6000fd5b50612e83565b612e838582868581518110612e6357634e487b7160e01b600052603260045260246000fd5b60200260200101516001600160a01b031661336c9092919063ffffffff16565b5080612e8e81613d5e565b915050612d6f565b60006001600160a01b03831673eeeeeeeeeeeeeeeeeeeeeeeeeeeeeeeeeeeeeeee1415612ec4575080612f4b565b603454604051632a410b9360e01b81526001600160a01b0385811660048301526024820185905290911690632a410b939060440160206040518083038186803b158015612f1057600080fd5b505afa158015612f24573d6000803e3d6000fd5b505050506040513d601f19601f82011682018060405250810190612f489190613944565b90505b92915050565b60008054610100900460ff1615612f98578160ff166001148015612f745750303b155b612f905760405162461bcd60e51b8152600401610b0590613b7e565b506000612b43565b60005460ff808416911610612fbf5760405162461bcd60e51b8152600401610b0590613b7e565b506000805460ff191660ff83161790556001612b43565b80158061305f5750604051636eb1769f60e11b81523060048201526001600160a01b03838116602483015284169063dd62ed3e9060440160206040518083038186803b15801561302557600080fd5b505afa158015613039573d6000803e3d6000fd5b505050506040513d601f19601f8201168201806040525081019061305d9190613944565b155b6130ca5760405162461bcd60e51b815260206004820152603660248201527f5361666545524332303a20617070726f76652066726f6d206e6f6e2d7a65726f60448201527520746f206e6f6e2d7a65726f20616c6c6f77616e636560501b6064820152608401610b05565b6040516001600160a01b0383166024820152604481018290526119e590849063095ea7b360e01b906064015b60408051601f198184030181529190526020810180516001600160e01b03166001600160e01b03199093169290921790915261339c565b6034805461ffff60a01b1916600160a01b61ffff861602179055603380546001600160a01b0319166001600160a01b03861690811790915560408051635c4443cf60e11b8152905163b888879e91600480820192602092909190829003018186803b15801561319b57600080fd5b505afa1580156131af573d6000803e3d6000fd5b505050506040513d601f19601f820116820180604052508101906131d3919061374e565b603480546001600160a01b0319166001600160a01b0392831617905560335460408051636771593560e01b81529051613293939290921691636771593591600480820192602092909190829003018186803b15801561323157600080fd5b505afa158015613245573d6000803e3d6000fd5b505050506040513d601f19601f82011682018060405250810190613269919061374e565b600080546001600160a01b03909216620100000262010000600160b01b0319909216919091179055565b81516132a69060359060208501906135f1565b5060008151116132ec5760405162461bcd60e51b81526020600482015260116024820152701dd85b9d1cc81a5cc81c995c5d5a5c9959607a1b6044820152606401610b05565b8051610ee3906036906020840190613675565b6000608082106133445760405162461bcd60e51b815260206004820152601060248201526f0aa98be929cac82989288be929c888ab60831b6044820152606401610b05565b61334f826002613cc1565b61335a906001613c89565b83901c60011660001415905092915050565b6040516001600160a01b0383166024820152604481018290526119e590849063a9059cbb60e01b906064016130f6565b60006133f1826040518060400160405280602081526020017f5361666545524332303a206c6f772d6c6576656c2063616c6c206661696c6564815250856001600160a01b031661346e9092919063ffffffff16565b8051909150156119e5578080602001905181019061340f91906138eb565b6119e55760405162461bcd60e51b815260206004820152602a60248201527f5361666545524332303a204552433230206f7065726174696f6e20646964206e6044820152691bdd081cdd58d8d9595960b21b6064820152608401610b05565b606061347d8484600085613487565b90505b9392505050565b6060824710156134e85760405162461bcd60e51b815260206004820152602660248201527f416464726573733a20696e73756666696369656e742062616c616e636520666f6044820152651c8818d85b1b60d21b6064820152608401610b05565b6001600160a01b0385163b61353f5760405162461bcd60e51b815260206004820152601d60248201527f416464726573733a2063616c6c20746f206e6f6e2d636f6e74726163740000006044820152606401610b05565b600080866001600160a01b0316858760405161355b9190613a42565b60006040518083038185875af1925050503d8060008114613598576040519150601f19603f3d011682016040523d82523d6000602084013e61359d565b606091505b50915091506135ad8282866135b8565b979650505050505050565b606083156135c7575081613480565b8251156135d75782518084602001fd5b8160405162461bcd60e51b8152600401610b059190613b4b565b8280546135fd90613d23565b90600052602060002090601f01602090048101928261361f5760008555613665565b82601f1061363857805160ff1916838001178555613665565b82800160010185558215613665579182015b8281111561366557825182559160200191906001019061364a565b506136719291506136ca565b5090565b828054828255906000526020600020908101928215613665579160200282015b8281111561366557825182546001600160a01b0319166001600160a01b03909116178255602090920191600190910190613695565b5b8082111561367157600081556001016136cb565b600082601f8301126136ef578081fd5b813560206137046136ff83613c65565b613c34565b80838252828201915082860187848660051b8901011115613723578586fd5b855b8581101561374157813584529284019290840190600101613725565b5090979650505050505050565b60006020828403121561375f578081fd5b815161348081613da5565b6000806040838503121561377c578081fd5b823561378781613da5565b915060208381013567ffffffffffffffff808211156137a4578384fd5b818601915086601f8301126137b7578384fd5b8135818111156137c9576137c9613d8f565b6137db601f8201601f19168501613c34565b915080825287848285010111156137f0578485fd5b8084840185840137810190920192909252919491935090915050565b6000806040838503121561381e578182fd5b823567ffffffffffffffff80821115613835578384fd5b818501915085601f830112613848578384fd5b813560206138586136ff83613c65565b8083825282820191508286018a848660051b8901011115613877578889fd5b8896505b848710156138a257803561388e81613da5565b83526001969096019591830191830161387b565b50965050860135925050808211156138b8578283fd5b506138c5858286016136df565b9150509250929050565b6000602082840312156138e0578081fd5b813561348081613dbd565b6000602082840312156138fc578081fd5b815161348081613dbd565b600060208284031215613918578081fd5b6139226020613c34565b9151825250919050565b60006020828403121561393d578081fd5b5035919050565b600060208284031215613955578081fd5b5051919050565b600080600060608486031215613970578081fd5b505081359360208301359350604090920135919050565b60008060008060008060c0878903121561399f578182fd5b865195506020870151945060408701519350606087015192506080870151915060a087015190509295509295509295565b6000815180845260208085019450808401835b83811015613a085781516001600160a01b0316875295820195908201906001016139e3565b509495945050505050565b6000815180845260208085019450808401835b83811015613a0857815187529582019590820190600101613a26565b60008251613a54818460208701613cf7565b9190910192915050565b600060208252612f4860208301846139d0565b600060408252613a8460408301856139d0565b8281036020840152613a968185613a13565b95945050505050565b600060808252613ab260808301876139d0565b8281036020840152613ac48187613a13565b941515604084015250506060015292915050565b60006020808301818452808551808352604092508286019150828160051b870101848801865b83811015613b3d57888303603f19018552815180518452870151878401879052613b2a878501826139d0565b9588019593505090860190600101613afe565b509098975050505050505050565b6000602082528251806020840152613b6a816040850160208701613cf7565b601f01601f19169190910160400192915050565b6020808252602e908201527f496e697469616c697a61626c653a20636f6e747261637420697320616c72656160408201526d191e481a5b9a5d1a585b1a5e995960921b606082015260800190565b60208082526018908201527f73657474696e67206f7574707574207468652072616e67650000000000000000604082015260600190565b600085825284602083015260806040830152613c2260808301856139d0565b82810360608401526135ad8185613a13565b604051601f8201601f1916810167ffffffffffffffff81118282101715613c5d57613c5d613d8f565b604052919050565b600067ffffffffffffffff821115613c7f57613c7f613d8f565b5060051b60200190565b60008219821115613c9c57613c9c613d79565b500190565b600082613cbc57634e487b7160e01b81526012600452602481fd5b500490565b6000816000190483118215151615613cdb57613cdb613d79565b500290565b600082821015613cf257613cf2613d79565b500390565b60005b83811015613d12578181015183820152602001613cfa565b83811115611f575750506000910152565b600181811c90821680613d3757607f821691505b60208210811415613d5857634e487b7160e01b600052602260045260246000fd5b50919050565b6000600019821415613d7257613d72613d79565b5060010190565b634e487b7160e01b600052601160045260246000fd5b634e487b7160e01b600052604160045260246000fd5b6001600160a01b0381168114613dba57600080fd5b50565b8015158114613dba57600080fdfe000000000000000000000000ae7ab96520de3a18e5e111b5eaab095312d7fe84a2646970667358221220cf1fe774b51c3f5d05e0cbccda4288bc30bc1b9f31dd434904f06ed4d56b4f9964736f6c63430008030033","abi":[{"anonymous":false,"inputs":[{"indexed":false,"internalType":"address[]","name":"_assets","type":"address[]"},{"indexed":false,"internalType":"uint256[]","name":"_amounts","type":"uint256[]"}],"name":"Borrow","type":"event"},{"anonymous":false,"inputs":[{"indexed":false,"internalType":"uint8","name":"version","type":"uint8"}],"name":"Initialized","type":"event"},{"anonymous":false,"inputs":[{"indexed":false,"internalType":"uint256","name":"_remainingAmount","type":"uint256"},{"indexed":false,"internalType":"uint256","name":"_overflowAmount","type":"uint256"}],"name":"Rebalance","type":"event"},{"anonymous":false,"inputs":[{"indexed":false,"internalType":"uint256","name":"_withdrawShares","type":"uint256"},{"indexed":false,"internalType":"uint256","name":"_totalShares","type":"uint256"},{"indexed":false,"internalType":"address[]","name":"_assets","type":"address[]"},{"indexed":false,"internalType":"uint256[]","name":"_amounts","type":"uint256[]"}],"name":"Repay","type":"event"},{"anonymous":false,"inputs":[{"indexed":false,"internalType":"bool","name":"_oldValue","type":"bool"},{"indexed":false,"internalType":"bool","name":"_newValue","type":"bool"}],"name":"SetIsWantRatioIgnorable","type":"event"},{"anonymous":false,"inputs":[{"indexed":false,"internalType":"address","name":"_strategy","type":"address"},{"indexed":false,"internalType":"address[]","name":"_rewards","type":"address[]"},{"indexed":false,"internalType":"uint256[]","name":"_rewardAmounts","type":"uint256[]"},{"indexed":false,"internalType":"address[]","name":"_wants","type":"address[]"},{"indexed":false,"internalType":"uint256[]","name":"_wantAmounts","type":"uint256[]"}],"name":"SwapRewardsToWants","type":"event"},{"anonymous":false,"inputs":[{"indexed":false,"internalType":"uint256","name":"_borrowCount","type":"uint256"}],"name":"UpdateBorrowCount","type":"event"},{"anonymous":false,"inputs":[{"indexed":false,"internalType":"uint256","name":"_borrowFactor","type":"uint256"}],"name":"UpdateBorrowFactor","type":"event"},{"anonymous":false,"inputs":[{"indexed":false,"internalType":"uint256","name":"_borrowFactorMax","type":"uint256"}],"name":"UpdateBorrowFactorMax","type":"event"},{"anonymous":false,"inputs":[{"indexed":false,"internalType":"uint256","name":"_borrowFactorMin","type":"uint256"}],"name":"UpdateBorrowFactorMin","type":"event"},{"stateMutability":"payable","type":"fallback"},{"inputs":[],"name":"A_ST_ETH","outputs":[{"internalType":"address","name":"","type":"address"}],"stateMutability":"view","type":"function"},{"inputs":[],"name":"A_WETH","outputs":[{"internalType":"address","name":"","type":"address"}],"stateMutability":"view","type":"function"},{"inputs":[],"name":"BPS","outputs":[{"internalType":"uint256","name":"","type":"uint256"}],"stateMutability":"view","type":"function"},{"inputs":[],"name":"DEBT_W_ETH","outputs":[{"internalType":"address","name":"","type":"address"}],"stateMutability":"view","type":"function"},{"inputs":[],"name":"RESERVE_ID_OF_ST_ETH","outputs":[{"internalType":"uint256","name":"","type":"uint256"}],"stateMutability":"view","type":"function"},{"inputs":[],"name":"ST_ETH","outputs":[{"internalType":"address","name":"","type":"address"}],"stateMutability":"view","type":"function"},{"inputs":[],"name":"W_ETH","outputs":[{"internalType":"address","name":"","type":"address"}],"stateMutability":"view","type":"function"},{"inputs":[],"name":"accessControlProxy","outputs":[{"internalType":"contract IAccessControlProxy","name":"","type":"address"}],"stateMutability":"view","type":"function"},{"inputs":[{"internalType":"address[]","name":"_assets","type":"address[]"},{"internalType":"uint256[]","name":"_amounts","type":"uint256[]"}],"name":"borrow","outputs":[],"stateMutability":"payable","type":"function"},{"inputs":[],"name":"borrowCount","outputs":[{"internalType":"uint256","name":"","type":"uint256"}],"stateMutability":"view","type":"function"},{"inputs":[],"name":"borrowFactor","outputs":[{"internalType":"uint256","name":"","type":"uint256"}],"stateMutability":"view","type":"function"},{"inputs":[],"name":"borrowFactorMax","outputs":[{"internalType":"uint256","name":"","type":"uint256"}],"stateMutability":"view","type":"function"},{"inputs":[],"name":"borrowFactorMin","outputs":[{"internalType":"uint256","name":"","type":"uint256"}],"stateMutability":"view","type":"function"},{"inputs":[],"name":"borrowInfo","outputs":[{"internalType":"uint256","name":"_remainingAmount","type":"uint256"},{"internalType":"uint256","name":"_overflowAmount","type":"uint256"}],"stateMutability":"view","type":"function"},{"inputs":[],"name":"estimatedTotalAssets","outputs":[{"internalType":"uint256","name":"_assetsInETH","type":"uint256"}],"stateMutability":"view","type":"function"},{"inputs":[],"name":"get3rdPoolAssets","outputs":[{"internalType":"uint256","name":"","type":"uint256"}],"stateMutability":"view","type":"function"},{"inputs":[],"name":"getOutputsInfo","outputs":[{"components":[{"internalType":"uint256","name":"outputCode","type":"uint256"},{"internalType":"address[]","name":"outputTokens","type":"address[]"}],"internalType":"struct ETHBaseStrategy.OutputInfo[]","name":"_outputsInfo","type":"tuple[]"}],"stateMutability":"view","type":"function"},{"inputs":[],"name":"getPositionDetail","outputs":[{"internalType":"address[]","name":"_tokens","type":"address[]"},{"internalType":"uint256[]","name":"_amounts","type":"uint256[]"},{"internalType":"bool","name":"_isETH","type":"bool"},{"internalType":"uint256","name":"_ethValue","type":"uint256"}],"stateMutability":"view","type":"function"},{"inputs":[],"name":"getVersion","outputs":[{"internalType":"string","name":"","type":"string"}],"stateMutability":"pure","type":"function"},{"inputs":[],"name":"getWants","outputs":[{"internalType":"address[]","name":"","type":"address[]"}],"stateMutability":"view","type":"function"},{"inputs":[],"name":"getWantsInfo","outputs":[{"internalType":"address[]","name":"_assets","type":"address[]"},{"internalType":"uint256[]","name":"_ratios","type":"uint256[]"}],"stateMutability":"view","type":"function"},{"inputs":[],"name":"harvest","outputs":[{"internalType":"address[]","name":"_rewardsTokens","type":"address[]"},{"internalType":"uint256[]","name":"_claimAmounts","type":"uint256[]"}],"stateMutability":"nonpayable","type":"function"},{"inputs":[{"internalType":"address","name":"_vault","type":"address"},{"internalType":"string","name":"_name","type":"string"}],"name":"initialize","outputs":[],"stateMutability":"nonpayable","type":"function"},{"inputs":[],"name":"isWantRatioIgnorable","outputs":[{"internalType":"bool","name":"","type":"bool"}],"stateMutability":"view","type":"function"},{"inputs":[],"name":"name","outputs":[{"internalType":"string","name":"","type":"string"}],"stateMutability":"view","type":"function"},{"inputs":[],"name":"poolQuota","outputs":[{"internalType":"uint256","name":"","type":"uint256"}],"stateMutability":"view","type":"function"},{"inputs":[],"name":"priceOracleConsumer","outputs":[{"internalType":"contract IPriceOracleConsumer","name":"","type":"address"}],"stateMutability":"view","type":"function"},{"inputs":[],"name":"protocol","outputs":[{"internalType":"uint16","name":"","type":"uint16"}],"stateMutability":"view","type":"function"},{"inputs":[],"name":"rebalance","outputs":[],"stateMutability":"nonpayable","type":"function"},{"inputs":[{"internalType":"uint256","name":"_repayShares","type":"uint256"},{"internalType":"uint256","name":"_totalShares","type":"uint256"},{"internalType":"uint256","name":"_outputCode","type":"uint256"}],"name":"repay","outputs":[{"internalType":"address[]","name":"_assets","type":"address[]"},{"internalType":"uint256[]","name":"_amounts","type":"uint256[]"}],"stateMutability":"nonpayable","type":"function"},{"inputs":[{"internalType":"uint256","name":"_borrowCount","type":"uint256"}],"name":"setBorrowCount","outputs":[],"stateMutability":"nonpayable","type":"function"},{"inputs":[{"internalType":"uint256","name":"_borrowFactor","type":"uint256"}],"name":"setBorrowFactor","outputs":[],"stateMutability":"nonpayable","type":"function"},{"inputs":[{"internalType":"uint256","name":"_borrowFactorMax","type":"uint256"}],"name":"setBorrowFactorMax","outputs":[],"stateMutability":"nonpayable","type":"function"},{"inputs":[{"internalType":"uint256","name":"_borrowFactorMin","type":"uint256"}],"name":"setBorrowFactorMin","outputs":[],"stateMutability":"nonpayable","type":"function"},{"inputs":[{"internalType":"bool","name":"_isWantRatioIgnorable","type":"bool"}],"name":"setIsWantRatioIgnorable","outputs":[],"stateMutability":"nonpayable","type":"function"},{"inputs":[],"name":"vault","outputs":[{"internalType":"contract IETHVault","name":"","type":"address"}],"stateMutability":"view","type":"function"},{"inputs":[{"internalType":"uint256","name":"","type":"uint256"}],"name":"wants","outputs":[{"internalType":"address","name":"","type":"address"}],"stateMutability":"view","type":"function"},{"stateMutability":"payable","type":"receive"}]}